:020000040000FA
:04000000803108281B
:100008007E1480317E10090080310A282000B0015A
:10001800B1017E102000803111288431BC24803148
:100028008431F72480310030FD000030FC000330BB
:10003800FB00E830FA0000308331F9238031843145
:10004800E324803122008D15D0302000AB00C93068
:10005800890B2C28AB0B2C28003284312F248031BB
:100068002000A20101308231D122803130302000BD
:10007800AB002B08A20002308231D122803114302B
:100088002000AB002B08A20003308231D12280313E
:100098002000A2010C308231D122803120008D1D38
:1000A800562857285B28901D5A285B28E028843159
:1000B800F724803103302000AC000830AB007730E3
:1000C800890B6428AB0B6428AC0B6428013082319F
:1000D8000222803102308231022280312000AB00BE
:1000E8002B08AE0003308231022280312000AB00A1
:1000F8002B08AF008131892180310030FD000030AC
:10010800FC000330FB00E830FA0020002F088331A0
:10011800F9238031AC282F08843155248031200000
:10012800AB002B08AF002F08AB002B08A200033050
:100138008231D12280310030FD000030FC000030D7
:10014800FB006430FA0020002F088331F923803146
:1001580020008D1DB028B1288F280030FD00003008
:10016800FC000330FB00E830FA002E088331F92345
:100178008031DB282E088331762380312000AB00C4
:100188002B08AE002E08AB002B08A20002308231EB
:10019800D12280310030FD000030FC000030FB002F
:1001A8006430FA0020002E088331F92380312000C2
:1001B8008D1DDF28E028BE288431E32480315228B1
:1001C80080310828F900602922008E177408F10090
:1001D8007308F0008431EE24803122008E138829C0
:1001E80022000D157408F1007308F0008431EE2424
:1001F800803122000D11882922000E177408F100A1
:100208007308F0008431EE24803122000E1388290F
:1002180022008D167408F1007308F0008431EE2472
:10022800803122008D12882922000D167408F100F1
:100238007308F0008431EE24803122000D128829E1
:1002480022000D177408F1007308F0008431EE24C1
:10025800803122000D13882922008D177408F100BF
:100268007308F0008431EE24803122008D13882930
:1002780022008D147408F1007308F0008431EE2414
:10028800803122008D10882922008E167408F10012
:100298007308F0008431EE24803122008E12882900
:1002A80022000D147408F1007308F0008431EE2464
:1002B800803122000D1088297908F700F8017808A4
:1002C800003A0319682988297708003A0319E828A9
:1002D800013A0319F428033A03190029013A0319CA
:1002E8000C29073A03191829013A03192429033A52
:1002F80003193029013A03193C290F3A03194829EF
:10030800013A03195429882908000030FD000030FB
:10031800FC000030FB002830FA0059308331F92303
:1003280081310030FD000030FC000030FB001E3041
:10033800FA0048308331F92381310030FD00003064
:10034800FC000030FB001E30FA0037308331F923FF
:1003580081310030FD000030FC000030FB0014301B
:10036800FA0026308331F92381310030FD00003056
:10037800FC000030FB001430FA0015308331F923FB
:1003880081310030FD000030FC000030FB001430EB
:10039800FA0004308331F92381310030FD00003048
:1003A800FC000030FB001430FA0013308331F923CD
:1003B80081310030FD000030FC000030FB001E30B1
:1003C800FA0022308331F92381310030FD000030FA
:1003D800FC000030FB001E30FA0031308331F92375
:1003E80081310030FD000030FC000030FB00283077
:1003F800FA0040308331F923813108002000A90038
:100408008431A7248231D03083312D238231710881
:100418002000A4007008A30023032404031D152A48
:10042800162A222A0030FD000030FC000330FB00B1
:10043800E830FA000B308331F92382312000290893
:1004480083312D23823171082000A6007008A50091
:1004580025032604031D312A322A3E2A0030FD00D6
:100468000030FC000330FB00E830FA00163083311E
:10047800F92382318431A7248231D13083312D236D
:10048800823171082000A8007008A70027032804FB
:10049800031D4F2A502A5C2A0030FD000030FC0062
:1004A8000330FB00E830FA0021308331F923823130
:1004B80000308331BC2382312000A2002208AA0028
:1004C80084319224823120002A080800F900B42AD5
:1004D80022008C157408F1007308F0008431EE24B2
:1004E800823122008C11D02A22000C167408F100E7
:1004F8007308F0008431EE24823122000C12D02AD5
:1005080022008C177408F1007308F0008431EE247F
:10051800823122008C13D02A22008C147408F10036
:100528007308F0008431EE24823122008C10D02A26
:1005380022000C157408F1007308F0008431EE24D1
:10054800823122000C11D02A22008C167408F10086
:100558007308F0008431EE24823122008C12D02AF4
:100568007908F700F8017808003A0319BC2AD02A5C
:100578007708003A03196C2A013A0319782A033AD2
:100588000319842A013A0319902A073A03199C2A65
:10059800013A0319A82AD02A08002000A9008431AA
:1005A800A7248231D03083312D2382317108200075
:1005B800A4007008A30023032404031DE42AE52AE9
:1005C800F12A0030FD000030FC000330FB00E83069
:1005D800FA000D308331F923823120002908833154
:1005E8002D23823171082000A6007008A50025037C
:1005F8002604031D002B012B0D2B0030FD000030BD
:10060800FC000330FB00E830FA0018308331F9238E
:1006180082312000220883312D2382317108200085
:10062800A8007008A70027032804031D1C2B1D2BF6
:10063800292B0030FD000030FC000330FB00E830BF
:10064800FA0018308331F9238231843192248231BF
:100658000800F3000830F2007208F400502BF31F72
:10066800362B372B3A2B21008E143C2B21008E1071
:1006780085310725833122000E1485310725833102
:1006880022000E108531072583310310F30D8531C3
:10069800072583310130F4027408031D542B552BB0
:1006A800332B21008E1485310725833122000E1447
:1006B80085310725833120008E1C632B642B682B22
:1006C8000130B0000030B1008531072583312200A8
:1006D8000E1085310725833120003108F1003008DC
:1006E800F0000800F10059307106031D7C2B7D2BAA
:1006F8007F2BF101BA2B49307106031D842B852B02
:100708008A2B5030F0007008F100BA2B393071068E
:10071800031D8F2B902B952B4030F0007008F100B3
:10072800BA2B29307106031D9A2B9B2BA02B303036
:10073800F0007008F100BA2B19307106031DA52BC3
:10074800A62BAB2B2030F0007008F100BA2B093033
:100758007106031DB02BB12BB62B1030F0007008BA
:10076800F100BA2B0130F0007008F1077108080099
:10077800F100F20121008E14853107258331F30140
:100788000310F20D22000E14853107258331200055
:100798008E1CCF2BD02BD12B72148531072583319A
:1007A80022000E108531072583310130F0007008D2
:1007B800F30708307302031CE22BE32BC42B7108E8
:1007C8000319E72BE82BEA2B21008E10853107252A
:1007D800833122000E1485310725833122000E1043
:1007E800853107258331720808002000A100262CD6
:1007F8000030F6000030F5000030F4000130F3005E
:1008080020002108A0000430A036890B082C2008FD
:100818000F3982316A2283310030F6000030F5004A
:100828000030F4000130F300200021080F39803136
:10083800E6208331FF30FA07FF30FB3DFF30FC3DF7
:10084800FF30FD3D7D087C047B047A04031D2D2CBC
:100858002E2CFC2B080021008E10853107258431B1
:1008680021000E1085310725843122000E108531B4
:100878000725843122008E10853107258431220016
:100888000C178531072584310530F1000F30F00051
:10089800F130890B4D2CF00B4D2CF10B4D2C000039
:1008A8000800F10023307106031D5B2C5C2C5E2CC4
:1008B800F101782C19307106031D632C642C692C06
:1008C8002030F0007008F100782C09307106031D03
:1008D8006E2C6F2C742C1030F0007008F100782CFE
:1008E8000130F0007008F10771080800220090013B
:1008F8008C018D018E0108302100900001308C00A0
:100908008D018E0123008D0101308C00240090019F
:100918008D012100951722009D01080022000E1468
:1009280085310725843121008E10853107258431D2
:1009380021008E1485310725843122000E1085315F
:1009480007258431080022000E14853107258431DB
:1009580021008E1485310725843121008E108531C0
:100968000725843122000E108531072584310800BF
:1009780084317A2484318431CC24843185310C2526
:1009880084318531102584318431FF248431080075
:1009980070302100990098012200960121001A1F49
:1009A800D62CD72CD22C0800A63020009B0004306F
:1009B8009C009630250091001C309300080021000F
:1009C8000E1520009B019C01250091019301210037
:1009D8000E1108000B30F2006230890BF12CF20B7B
:1009E800F12C0032080021000E158431D8248431FE
:1009F80021000E110800013021009D0063309E0087
:100A08009B019C0108003530890B082D0000080067
:100A18001630210097000800833022009700080054
:020000040001F9
:04000E00A4FFFFDF6D
:00000001FF
